{
  "contractName": "ByteDynamicArrays",
  "abi": [
    {
      "inputs": [],
      "name": "b1",
      "outputs": [
        {
          "internalType": "bytes",
          "name": "",
          "type": "bytes"
        }
      ],
      "stateMutability": "view",
      "type": "function",
      "constant": true
    },
    {
      "inputs": [],
      "name": "pushElement",
      "outputs": [],
      "stateMutability": "nonpayable",
      "type": "function"
    },
    {
      "inputs": [
        {
          "internalType": "uint256",
          "name": "i",
          "type": "uint256"
        }
      ],
      "name": "getElement",
      "outputs": [
        {
          "internalType": "bytes1",
          "name": "",
          "type": "bytes1"
        }
      ],
      "stateMutability": "view",
      "type": "function",
      "constant": true
    },
    {
      "inputs": [],
      "name": "getLength",
      "outputs": [
        {
          "internalType": "uint256",
          "name": "",
          "type": "uint256"
        }
      ],
      "stateMutability": "view",
      "type": "function",
      "constant": true
    }
  ],
  "bytecode": "0x60806040526040518060400160405280600381526020017f61626300000000000000000000000000000000000000000000000000000000008152506000908051906020019061004f929190610062565b5034801561005c57600080fd5b50610165565b82805461006e90610134565b90600052602060002090601f01602090048101928261009057600085556100d7565b82601f106100a957805160ff19168380011785556100d7565b828001600101855582156100d7579182015b828111156100d65782518255916020019190600101906100bb565b5b5090506100e491906100e8565b5090565b5b808211156101015760008160009055506001016100e9565b5090565b7f4e487b7100000000000000000000000000000000000000000000000000000000600052602260045260246000fd5b6000600282049050600182168061014c57607f821691505b60208210810361015f5761015e610105565b5b50919050565b6104fb806101746000396000f3fe608060405234801561001057600080fd5b506004361061004c5760003560e01c80630317d5f3146100515780633a7d22bc1461005b578063be1c766b1461008b578063ee495002146100a9575b600080fd5b6100596100c7565b005b610075600480360381019061007091906102ce565b610186565b6040516100829190610336565b60405180910390f35b6100936101f0565b6040516100a09190610360565b60405180910390f35b6100b1610205565b6040516100be9190610414565b60405180910390f35b6000808054806100d690610465565b80601f81036100f55783600052602060002060ff1984168155603f9350505b506002820183556001810192505050600190038154600116156101275790600052602060002090602091828204019190065b7f640000000000000000000000000000000000000000000000000000000000000090919091601f036101000a81548160ff021916907f010000000000000000000000000000000000000000000000000000000000000084040217905550565b60008082815461019590610465565b81106101a4576101a3610496565b5b8154600116156101c35790600052602060002090602091828204019190065b9054901a7f0100000000000000000000000000000000000000000000000000000000000000029050919050565b60008080546101fe90610465565b9050905090565b6000805461021290610465565b80601f016020809104026020016040519081016040528092919081815260200182805461023e90610465565b801561028b5780601f106102605761010080835404028352916020019161028b565b820191906000526020600020905b81548152906001019060200180831161026e57829003601f168201915b505050505081565b600080fd5b6000819050919050565b6102ab81610298565b81146102b657600080fd5b50565b6000813590506102c8816102a2565b92915050565b6000602082840312156102e4576102e3610293565b5b60006102f2848285016102b9565b91505092915050565b60007fff0000000000000000000000000000000000000000000000000000000000000082169050919050565b610330816102fb565b82525050565b600060208201905061034b6000830184610327565b92915050565b61035a81610298565b82525050565b60006020820190506103756000830184610351565b92915050565b600081519050919050565b600082825260208201905092915050565b60005b838110156103b557808201518184015260208101905061039a565b838111156103c4576000848401525b50505050565b6000601f19601f8301169050919050565b60006103e68261037b565b6103f08185610386565b9350610400818560208601610397565b610409816103ca565b840191505092915050565b6000602082019050818103600083015261042e81846103db565b905092915050565b7f4e487b7100000000000000000000000000000000000000000000000000000000600052602260045260246000fd5b6000600282049050600182168061047d57607f821691505b6020821081036104905761048f610436565b5b50919050565b7f4e487b7100000000000000000000000000000000000000000000000000000000600052603260045260246000fdfea26469706673582212200634905553f4f0abd01b986e77dd38b579b5b248608d4f90213e76ebf306978c64736f6c634300080d0033",
  "immutableReferences": {},
  "source": "//SPDX-License-Identifier: GPL-3.0\r\n\r\npragma solidity >=0.4.20; \r\n\r\ncontract ByteDynamicArrays {\r\n    bytes public b1=\"abc\";\r\n\r\n    function pushElement() public {\r\n        b1.push('d');\r\n    }\r\n\r\n    function getElement(uint i) public view returns(bytes1) {\r\n        return b1[i];\r\n    }\r\n    function getLength() public view returns(uint) {\r\n        return b1.length;\r\n    }\r\n}",
  "sourcePath": "D:\\codes\\Solidity\\SOL\\contracts\\byteDynamicArrays.sol",
  "compiler": {
    "name": "solc",
    "version": "0.8.13+commit.abaa5c0e.Emscripten.clang"
  },
  "schemaVersion": "3.4.16",
  "updatedAt": "2023-09-22T05:48:53.859Z",
  "networkType": "ethereum",
  "devdoc": {
    "kind": "dev",
    "methods": {},
    "version": 1
  },
  "userdoc": {
    "kind": "user",
    "methods": {},
    "version": 1
  }
}