{
  "contractName": "ByteStaticArrays",
  "abi": [
    {
      "inputs": [],
      "name": "b2",
      "outputs": [
        {
          "internalType": "bytes2",
          "name": "",
          "type": "bytes2"
        }
      ],
      "stateMutability": "view",
      "type": "function",
      "constant": true
    },
    {
      "inputs": [],
      "name": "b3",
      "outputs": [
        {
          "internalType": "bytes3",
          "name": "",
          "type": "bytes3"
        }
      ],
      "stateMutability": "view",
      "type": "function",
      "constant": true
    },
    {
      "inputs": [],
      "name": "setter",
      "outputs": [],
      "stateMutability": "nonpayable",
      "type": "function"
    }
  ],
  "bytecode": "0x608060405234801561001057600080fd5b5061020c806100206000396000f3fe608060405234801561001057600080fd5b50600436106100415760003560e01c80630add6ef2146100465780633f3108f714610064578063e9b619091461006e575b600080fd5b61004e61008c565b60405161005b9190610165565b60405180910390f35b61006c61009f565b005b610076610119565b60405161008391906101bb565b60405180910390f35b600060039054906101000a900460f01b81565b7f61626300000000000000000000000000000000000000000000000000000000006000806101000a81548162ffffff021916908360e81c02179055507f6162000000000000000000000000000000000000000000000000000000000000600060036101000a81548161ffff021916908360f01c0217905550565b60008054906101000a900460e81b81565b60007fffff00000000000000000000000000000000000000000000000000000000000082169050919050565b61015f8161012a565b82525050565b600060208201905061017a6000830184610156565b92915050565b60007fffffff000000000000000000000000000000000000000000000000000000000082169050919050565b6101b581610180565b82525050565b60006020820190506101d060008301846101ac565b9291505056fea2646970667358221220dd5f7280adf85348280b95200f950103f82121c97b3ef8af89ee663a7ddc713064736f6c634300080d0033",
  "immutableReferences": {},
  "source": "//SPDX-License-Identifier: GPL-3.0\r\n\r\npragma solidity >=0.4.20;\r\n\r\ncontract ByteStaticArrays {\r\n    bytes3 public b3; //3 bytes array\r\n    bytes2 public b2; //2 bytes array\r\n\r\n    function setter() public {\r\n        b3 = 'abc';\r\n        b2 = 'ab';\r\n    }\r\n}",
  "sourcePath": "D:\\codes\\Solidity\\SOL\\contracts\\byteStaticArrays.sol",
  "compiler": {
    "name": "solc",
    "version": "0.8.13+commit.abaa5c0e.Emscripten.clang"
  },
  "schemaVersion": "3.4.16",
  "updatedAt": "2023-09-22T05:48:53.724Z",
  "networkType": "ethereum",
  "devdoc": {
    "kind": "dev",
    "methods": {},
    "version": 1
  },
  "userdoc": {
    "kind": "user",
    "methods": {},
    "version": 1
  }
}