{
  "contractName": "Func",
  "abi": [
    {
      "inputs": [],
      "name": "name",
      "outputs": [
        {
          "internalType": "string",
          "name": "",
          "type": "string"
        }
      ],
      "stateMutability": "view",
      "type": "function",
      "constant": true
    },
    {
      "inputs": [],
      "name": "getter",
      "outputs": [
        {
          "internalType": "uint256",
          "name": "",
          "type": "uint256"
        }
      ],
      "stateMutability": "view",
      "type": "function",
      "constant": true
    },
    {
      "inputs": [
        {
          "internalType": "uint256",
          "name": "newAge",
          "type": "uint256"
        }
      ],
      "name": "setter",
      "outputs": [],
      "stateMutability": "nonpayable",
      "type": "function"
    }
  ],
  "bytecode": "0x608060405260176000556040518060400160405280600681526020017f53756268616d000000000000000000000000000000000000000000000000000081525060019080519060200190610054929190610067565b5034801561006157600080fd5b5061016a565b82805461007390610139565b90600052602060002090601f01602090048101928261009557600085556100dc565b82601f106100ae57805160ff19168380011785556100dc565b828001600101855582156100dc579182015b828111156100db5782518255916020019190600101906100c0565b5b5090506100e991906100ed565b5090565b5b808211156101065760008160009055506001016100ee565b5090565b7f4e487b7100000000000000000000000000000000000000000000000000000000600052602260045260246000fd5b6000600282049050600182168061015157607f821691505b6020821081036101645761016361010a565b5b50919050565b610322806101796000396000f3fe608060405234801561001057600080fd5b50600436106100415760003560e01c806306fdde0314610046578063993a04b714610064578063d423740b14610082575b600080fd5b61004e61009e565b60405161005b91906101d8565b60405180910390f35b61006c61012c565b6040516100799190610213565b60405180910390f35b61009c6004803603810190610097919061025f565b610135565b005b600180546100ab906102bb565b80601f01602080910402602001604051908101604052809291908181526020018280546100d7906102bb565b80156101245780601f106100f957610100808354040283529160200191610124565b820191906000526020600020905b81548152906001019060200180831161010757829003601f168201915b505050505081565b60008054905090565b8060008190555050565b600081519050919050565b600082825260208201905092915050565b60005b8381101561017957808201518184015260208101905061015e565b83811115610188576000848401525b50505050565b6000601f19601f8301169050919050565b60006101aa8261013f565b6101b4818561014a565b93506101c481856020860161015b565b6101cd8161018e565b840191505092915050565b600060208201905081810360008301526101f2818461019f565b905092915050565b6000819050919050565b61020d816101fa565b82525050565b60006020820190506102286000830184610204565b92915050565b600080fd5b61023c816101fa565b811461024757600080fd5b50565b60008135905061025981610233565b92915050565b6000602082840312156102755761027461022e565b5b60006102838482850161024a565b91505092915050565b7f4e487b7100000000000000000000000000000000000000000000000000000000600052602260045260246000fd5b600060028204905060018216806102d357607f821691505b6020821081036102e6576102e561028c565b5b5091905056fea2646970667358221220f121d7024348c0837d4dc67e4abc17c85cf6fea54db2681bf311e702a8b17d1c64736f6c634300080d0033",
  "immutableReferences": {},
  "source": "//SPDX-License-Identifier: GPL-3.0\r\n\r\npragma solidity >=0.4.20; \r\n\r\ncontract Func {\r\n    uint age = 23;\r\n    string public name = \"Subham\";\r\n\r\n    // Getter function.\r\n    function getter() public view returns(uint) {\r\n        return age;\r\n    }\r\n\r\n    // Setter function.\r\n    function setter(uint newAge) public {\r\n        age = newAge;\r\n    }\r\n}",
  "sourcePath": "D:\\codes\\Solidity\\SOL\\contracts\\func.sol",
  "compiler": {
    "name": "solc",
    "version": "0.8.13+commit.abaa5c0e.Emscripten.clang"
  },
  "schemaVersion": "3.4.16",
  "updatedAt": "2023-09-21T19:28:33.752Z",
  "networkType": "ethereum",
  "devdoc": {
    "kind": "dev",
    "methods": {},
    "version": 1
  },
  "userdoc": {
    "kind": "user",
    "methods": {},
    "version": 1
  }
}