{
  "contractName": "Identity",
  "abi": [
    {
      "inputs": [],
      "stateMutability": "nonpayable",
      "type": "constructor"
    },
    {
      "inputs": [],
      "name": "getName",
      "outputs": [
        {
          "internalType": "string",
          "name": "",
          "type": "string"
        }
      ],
      "stateMutability": "view",
      "type": "function",
      "constant": true
    },
    {
      "inputs": [],
      "name": "getAge",
      "outputs": [
        {
          "internalType": "uint256",
          "name": "",
          "type": "uint256"
        }
      ],
      "stateMutability": "view",
      "type": "function",
      "constant": true
    },
    {
      "inputs": [],
      "name": "setAge",
      "outputs": [],
      "stateMutability": "nonpayable",
      "type": "function"
    }
  ],
  "bytecode": "0x608060405234801561001057600080fd5b506040518060400160405280600681526020017f53756268616d00000000000000000000000000000000000000000000000000008152506000908051906020019061005c92919061006a565b50601160018190555061016d565b8280546100769061013c565b90600052602060002090601f01602090048101928261009857600085556100df565b82601f106100b157805160ff19168380011785556100df565b828001600101855582156100df579182015b828111156100de5782518255916020019190600101906100c3565b5b5090506100ec91906100f0565b5090565b5b808211156101095760008160009055506001016100f1565b5090565b7f4e487b7100000000000000000000000000000000000000000000000000000000600052602260045260246000fd5b6000600282049050600182168061015457607f821691505b6020821081036101675761016661010d565b5b50919050565b6103488061017c6000396000f3fe608060405234801561001057600080fd5b50600436106100415760003560e01c806317d7de7c14610046578063457676ee14610064578063967e6e651461006e575b600080fd5b61004e61008c565b60405161005b91906101d7565b60405180910390f35b61006c61011e565b005b610076610134565b6040516100839190610212565b60405180910390f35b60606000805461009b9061025c565b80601f01602080910402602001604051908101604052809291908181526020018280546100c79061025c565b80156101145780601f106100e957610100808354040283529160200191610114565b820191906000526020600020905b8154815290600101906020018083116100f757829003601f168201915b5050505050905090565b6001805461012c91906102bc565b600181905550565b6000600154905090565b600081519050919050565b600082825260208201905092915050565b60005b8381101561017857808201518184015260208101905061015d565b83811115610187576000848401525b50505050565b6000601f19601f8301169050919050565b60006101a98261013e565b6101b38185610149565b93506101c381856020860161015a565b6101cc8161018d565b840191505092915050565b600060208201905081810360008301526101f1818461019e565b905092915050565b6000819050919050565b61020c816101f9565b82525050565b60006020820190506102276000830184610203565b92915050565b7f4e487b7100000000000000000000000000000000000000000000000000000000600052602260045260246000fd5b6000600282049050600182168061027457607f821691505b6020821081036102875761028661022d565b5b50919050565b7f4e487b7100000000000000000000000000000000000000000000000000000000600052601160045260246000fd5b60006102c7826101f9565b91506102d2836101f9565b9250827fffffffffffffffffffffffffffffffffffffffffffffffffffffffffffffffff038211156103075761030661028d565b5b82820190509291505056fea2646970667358221220fd7f99a53d6912b1f2a26c9358e0af9a5ab9f1392ed72d295006f33c4b88e84264736f6c634300080d0033",
  "immutableReferences": {},
  "source": "// SPDX-License-Identifier: GPL-3.0\r\n\r\npragma solidity >=0.4.20;\r\n\r\ncontract Identity {\r\n    string name;\r\n    uint age;\r\n\r\n    constructor() {\r\n        name = \"Subham\";\r\n        age = 17;\r\n    }\r\n\r\n    function getName() view public returns(string memory) {\r\n        return name;\r\n    }\r\n    function getAge() view public returns(uint) {\r\n        return age;\r\n    }\r\n    function setAge() public {\r\n        age = age + 1;\r\n    }\r\n}",
  "sourcePath": "D:\\codes\\Solidity\\SOL\\contracts\\identity.sol",
  "compiler": {
    "name": "solc",
    "version": "0.8.13+commit.abaa5c0e.Emscripten.clang"
  },
  "schemaVersion": "3.4.16",
  "updatedAt": "2023-09-22T05:48:52.574Z",
  "networkType": "ethereum",
  "devdoc": {
    "kind": "dev",
    "methods": {},
    "version": 1
  },
  "userdoc": {
    "kind": "user",
    "methods": {},
    "version": 1
  }
}