{
  "contractName": "Local",
  "abi": [
    {
      "inputs": [],
      "name": "storeAge",
      "outputs": [
        {
          "internalType": "uint256",
          "name": "",
          "type": "uint256"
        }
      ],
      "stateMutability": "pure",
      "type": "function",
      "constant": true
    },
    {
      "inputs": [],
      "name": "storeName",
      "outputs": [
        {
          "internalType": "string",
          "name": "",
          "type": "string"
        }
      ],
      "stateMutability": "pure",
      "type": "function",
      "constant": true
    }
  ],
  "bytecode": "0x608060405234801561001057600080fd5b506101ed806100206000396000f3fe608060405234801561001057600080fd5b50600436106100365760003560e01c80632c2ec1d71461003b578063521936e614610059575b600080fd5b610043610077565b60405161005091906100e1565b60405180910390f35b610061610085565b60405161006e9190610195565b60405180910390f35b600080600a90508091505090565b606060006040518060400160405280600681526020017f53756268616d000000000000000000000000000000000000000000000000000081525090508091505090565b6000819050919050565b6100db816100c8565b82525050565b60006020820190506100f660008301846100d2565b92915050565b600081519050919050565b600082825260208201905092915050565b60005b8381101561013657808201518184015260208101905061011b565b83811115610145576000848401525b50505050565b6000601f19601f8301169050919050565b6000610167826100fc565b6101718185610107565b9350610181818560208601610118565b61018a8161014b565b840191505092915050565b600060208201905081810360008301526101af818461015c565b90509291505056fea2646970667358221220bfd3e2a5e6925cfec8828e315662185a47b4c5886e38646ea6006abe4c8a64c964736f6c634300080d0033",
  "immutableReferences": {},
  "source": "//SPDX-License-Identifier: GPL-3.0\r\n\r\npragma solidity >=0.4.20; \r\n\r\n/*Local variable stores in stack storage.*/ \r\n/*String values are stored in contract storage in default.*/ \r\n\r\ncontract Local {\r\n    function storeAge() public pure returns(uint) {\r\n        uint age = 10;\r\n        return age;\r\n    }\r\n    function storeName() public pure returns(string memory) {\r\n        //To use string value locally we have to use memory keyword.\r\n        string memory name = \"Subham\"; \r\n        return name;\r\n\r\n    }\r\n}",
  "sourcePath": "D:\\codes\\Solidity\\SOL\\contracts\\local.sol",
  "compiler": {
    "name": "solc",
    "version": "0.8.13+commit.abaa5c0e.Emscripten.clang"
  },
  "schemaVersion": "3.4.16",
  "updatedAt": "2023-09-22T05:48:52.848Z",
  "networkType": "ethereum",
  "devdoc": {
    "kind": "dev",
    "methods": {},
    "version": 1
  },
  "userdoc": {
    "kind": "user",
    "methods": {},
    "version": 1
  }
}